:100000000C94EB000C9413010C9413010C94130149
:100010000C9413010C9413010C9413010C94130110
:100020000C9413010C9413010C9413010C94130100
:100030000C9413010C9413010C9413010C941301F0
:100040000C9452150C9413010C949B190C94D71911
:100050000C9413010C9413010C9413010C941301D0
:100060000C9425140C941301005EBCE2613FDD8307
:10007000C29C7E20A3FD1F419DC3217FFCA2401E88
:100080005F01E3BD3E6082DC237D9FC1421CFEA078
:10009000E1BF5D0380DE3C62BEE0025CDF81633D68
:1000A0007C22C09E1D43A1FF4618FAA427799BC558
:1000B00084DA3866E5BB5907DB856739BAE4065848
:1000C0001947A5FB7826C49A653BD987045AB8E638
:1000D000A7F91B45C6987A24F8A6441A99C7257B28
:1000E0003A6486D85B05E7B98CD2306EEDB3510F18
:1000F0004E10F2AC2F7193CD114FADF3702ECC9208
:10010000D38D6F31B2EC0E50AFF1134DCE90722CF7
:100110006D33D18F0C52B0EE326C8ED0530DEFB1E7
:10012000F0AE4C1291CF2D73CA947628ABF51749D7
:100130000856B4EA6937D58B5709EBB536688AD4C7
:1001400095CB2977F4AA4816E9B7550B88D6346AB7
:100150002B7597C94A14F6A8742AC896154BA9F7A7
:10016000B6E80A54D7896B35000000070002010089
:100170000003040600000000000000000102040863
:100180001020408001020408102001020408102001
:10019000040404040404040402020202020203032D
:1001A00003030303000000002300260029000000D1
:1001B0000000250028002B0000000000240027007C
:1001C0002A006364696E6F70737578585B00220251
:1001D000860D4313921A11241FBECFEFD8E0DEBF65
:1001E000CDBF13E0A0E0B1E0E0EFF1E402C0059084
:1001F0000D92AC35B107D9F725E0ACE5B3E001C00D
:100200001D92A238B207E1F711E0C6EDD1E004C0BB
:100210002297FE010E94771DCE3CD107C9F70E94AC
:10022000AB180C94F6200C94000083E080938803B4
:1002300080E090E0A0E7B2E480939D0390939E035A
:10024000A0939F03B093A00381E080937E0381E19C
:10025000809389038EE180938A0397E190938B03C7
:1002600080938C030895FF920F931F93CF93DF9396
:10027000EC0188E0F82E8E018881803130F46AE349
:1002800071E08BED94E00E940717219640E150E069
:10029000F80160818BED94E00E9406186AE472E038
:1002A0008BED94E00E940717FA9429F7DF91CF9124
:1002B0001F910F91FF900895CF93DF9300D000D04E
:1002C00000D0CDB7DEB79E012F5F3F4F3F932F93F6
:1002D0002E5F3F4F3F932F932E5F3F4F3F932F93C0
:1002E0002CE331E03F932F939F938F930E948C1DBB
:1002F0000FB6F894DEBF0FBECDBF039759F48D81C2
:10030000809374038B81809373038981809372033C
:1003100081E001C080E026960FB6F894DEBF0FBEE4
:10032000CDBFDF91CF910895DF92EF92FF920F93AF
:100330001F93CF93DF93CDB7DEB760970FB6F894D6
:10034000DEBF0FBECDBF9E01235F3F4F3F932F9374
:100350002E5F3F4F3F932F938E010F5F1F4F1F93D1
:100360000F9325E431E03F932F939F938F930E9447
:100370008C1D0FB6F894DEBF0FBECDBF039791F46E
:1003800096E0E92E91E0F92ED12CF701619171915F
:100390007F01C8010E94831DD394892B29F0FCE0C2
:1003A000DF12F3CF80E00AC08F8580937603D0926E
:1003B00077038D85825B8093780381E060960FB62A
:1003C000F894DEBF0FBECDBFDF91CF911F910F918B
:1003D000FF90EF90DF900895CF93DF93CDB7DEB716
:1003E00027970FB6F894DEBF0FBECDBFCE010196A2
:1003F0000E94070E90910604882351F0992391F0F2
:100400006EE471E08BED94E00E94241781E011C04E
:10041000992341F068E671E08BED94E00E94241787
:1004200080E007C066E871E08BED94E00E9424173D
:1004300082E027960FB6F894DEBF0FBECDBFDF91E6
:10044000CF91089520E040E060E087EF93E00E94C4
:10045000BE0763E089EE93E00E94CB0F69EE73E084
:1004600086ED93E00E94590A87E28093790308950C
:10047000CF93DF93CDB7DEB7A7970FB6F894DEBF63
:100480000FBECDBF87E2EAE7F3E0DE0111960190EF
:100490000D928A95E1F763E58BED94E00E94641973
:1004A000E091DB04F091DC040280F381E02D47E26F
:1004B00050E0BE016F5F7F4F8BED94E0099565E4DE
:1004C0008BED94E00E946419A7960FB6F894DEBFF6
:1004D0000FBECDBFDF91CF910895CF93DF93CDB7FE
:1004E000DEB727970FB6F894DEBF0FBECDBF8C8561
:1004F0008636D9F164F4883409F455C0843509F19D
:10050000863409F07BC08D8580937B037DC08F3658
:1005100009F46EC01CF4883661F170C0833709F4A9
:100520006AC0843709F06AC08FA598A9A9A9BAA999
:1005300080939D0390939E03A0939F03B093A00389
:1005400063C08E898D838F898B83888D8A838D8903
:100550008E83898D89838B89825B8F83CE010196FF
:100560000E94B5110E94E10D4FC08E8580937C03DF
:100570004BC08889882381F081E080937E038B8D36
:10058000809389038C8D80938A038D8D80938B0358
:100590008E8D80938C0338C010927E031092C90315
:1005A0001092CB0319C08F85882381F081E080935E
:1005B0007D038F8D80938D0388A180938E0389A105
:1005C00080938F038AA1809390031EC010927D03B5
:1005D0001092C8031092CA0380917F038823A1F070
:1005E00060E080911E010E94991610927F030CC05A
:1005F0008A8D809388030E94380206C06EEA71E0FB
:100600008BED94E00E94241727960FB6F894DEBF76
:100610000FBECDBFDF91CF910895CF93DF9340E020
:1006200051EE60E070E08BED94E00E94121A86EDCE
:1006300093E00E94FA0B6EEB71E08BED94E00E9468
:1006400007176BED71E08BED94E00E94071786EDC4
:1006500093E00E94680A4AE050E0682F8BED94E036
:100660000E94061862EE71E08BED94E00E94241760
:100670006CEE71E08BED94E00E94071786ED93E03D
:100680000E94560D882319F069E072E002C06CE008
:1006900072E08BED94E00E94241760E172E08BED34
:1006A00094E00E94071782E291E00E9433018BEDF3
:1006B00094E00E94101763E272E08BED94E00E94D8
:1006C00007178AE291E00E9433018BED94E00E94CB
:1006D00010174AE062E271E086ED93E00E94840B1D
:1006E0004AE06AE271E086ED93E00E94840B66E3E3
:1006F00072E08BED94E00E94071762E271E086EDF4
:1007000093E00E94C80B4AE050E0682F8BED94E024
:100710000E9406188BED94E00E9410176CE472E0C2
:100720008BED94E00E9407176AE271E086ED93E09A
:100730000E94C80B4AE050E0682F8BED94E00E94C5
:1007400006188BED94E00E9410171092050420E02B
:1007500042E060E187EF93E00E94490961E087EFA2
:1007600093E00E94260887EF93E00E94ED088BED4E
:1007700094E00E9452190E94EC01882349F08130D4
:10078000D9F067E772E08BED94E00E94241761C016
:1007900082E692E00E949401882309F45AC08EE612
:1007A00092E00E945C01882309F453C082E793E041
:1007B0000E948A0DC82F01C0C1E0D1E087E2E1EAC2
:1007C000F3E0DF01982F1D929A95E9F7EAE7F3E04D
:1007D000DF01982F1D929A95E9F7E9E7F3E0DF0131
:1007E0001D928A95E9F70E94150161E08091200130
:1007F0000E94601661E080911E010E946016CC2369
:1008000051F0DD2341F060E972E08BED94E0DF917F
:10081000CF910C9424176BEA72E08BED94E00E9468
:1008200007176D2F70E04AE050E08BED94E00E94D6
:10083000E11764EB72E08BED94E00E9407176C2FD8
:1008400070E04AE050E08BED94E0DF91CF910C94A2
:10085000E117C0E0D0E0B2CF8F929F92AF92BF92EB
:10086000CF92DF92EF92FF92CF9386ED93E00E94BA
:10087000DC0C62E271E086ED93E00E94700D609303
:10088000D2037093D3038093D4039093D5036AE289
:1008900071E086ED93E00E94700D6093CE0370933B
:1008A000CF038093D0039093D103C090D203D09014
:1008B000D303E090D403F090D503C0929103D0927B
:1008C0009203E0929303F0929403609395037093E4
:1008D000960380939703909398038BED94E00E9486
:1008E0000919181619060CF046C047E250E069E7EE
:1008F00073E08BED94E00E94E618879759F587E244
:10090000E1EAF3E0DF01282F1D922A95E9F7E9E7F4
:10091000F3E0A1EAB3E0982F01900D929A95E1F7E8
:10092000ADB7BEB797970FB6F894BEBF0FBEADBFB9
:100930001196E1EAF3E001900D928A95E1F70E94A9
:100940006D022DB73EB7295D3F4F0FB6F8943EBFFD
:100950000FBE2DBF87E2E9E7F3E0DF011D928A9524
:10096000E9F7CF91FF90EF90DF90CF90BF90AF90DD
:100970009F908F90089580917C03813049F48091FD
:100980008003811138C081E08093800361E02FC033
:10099000C090D203D090D303E090D403F090D5035D
:1009A0008090CE039090CF03A090D003B090D1035D
:1009B00020E030E040E450E4C501B4010E94E31AB5
:1009C0009B01AC01C701B6010E94961C1816BCF22F
:1009D000A5019401C701B6010E94471B18165CF0DF
:1009E00080918003813039F41092800360E080911F
:1009F00020010E9499160E94700E6B017C010E94DA
:100A00008F114C0187EF93E00E94ED0841E060E018
:100A100087EF93E00E94F908BAE08B16910434F452
:100A20006AE371E087EF93E00E9407174AE050E025
:100A3000B40187EF93E00E94D9176EEB72E087EF65
:100A400093E00E940717C701B6010E9495115C014F
:100A50008A30910534F46AE371E087EF93E00E94F5
:100A600007174AE050E0B50187EF93E00E94D917DD
:100A7000C701B6010E94AD11909382038093810358
:100A8000C701B6010E94A71180938303C701B60175
:100A90000E94A1118093840380928503A092860313
:100AA000C701B6010E949B1180938703C0917B030D
:100AB000C13081F480917F03811107C061E0809192
:100AC0001E010E949916C0937F031092C9031092D1
:100AD000C803DEC142E753E0C701B6010E9492108D
:100AE00080917E0391E0811105C020917D03211149
:100AF00001C090E09130A9F080917F03813009F02E
:100B0000CBC160E080911E010E94991610927F0374
:100B10001092CB031092CA031092C9031092C8031B
:100B2000BBC1882309F4D0C08091C8038111CCC017
:100B30008091C903811152C087E0E2E7F3E0ABE6A0
:100B4000B3E001900D928A95E1F787E0E2E7F3E0E8
:100B5000A4E6B3E001900D928A95E1F780918903B4
:100B600080936D0380918A0380936C0310926B03D2
:100B70008BE693E00E94B51160936003709361036C
:100B8000809362039093630380918B038093660349
:100B900080918C03809365031092640384E693E054
:100BA0000E94B51160935C0370935D0380935E03B4
:100BB00090935F033091890320918B03231770F486
:100BC000DC01CB0180589E4AAE4FBF4F80935C033F
:100BD00090935D03A0935E03B0935F0380916003E5
:100BE00090916103A0916203B0916303C816D90686
:100BF000EA06FB0608F466C080915C0390915D03F1
:100C0000A0915E03B0915F038C159D05AE05BF05F5
:100C100008F458C081E08093C9038091CB038823F6
:100C200019F0813021F150C020919D0330919E0335
:100C300040919F035091A0036091CE037091CF0328
:100C40008091D0039091D1030E94961C87FD3CC0F7
:100C500080917F03811105C061E080911E010E9497
:100C6000991681E080937F038093CB032DC0609120
:100C7000880370E080E090E00E94E61B9B01AC01DD
:100C800060919D0370919E0380919F039091A003BA
:100C90000E94E21A9B01AC016091CE037091CF03D8
:100CA0008091D0039091D1030E94471B181664F0E5
:100CB00010927F0360E080911E010E9499161092AD
:100CC000CB0302C01092C90380917D03882309F4ED
:100CD000CCC08091C9038111C8C08091C803811123
:100CE0004EC087E0E2E7F3E0ABE6B3E001900D929F
:100CF0008A95E1F787E0E2E7F3E0A4E6B3E001904C
:100D00000D928A95E1F780918D0380936D03809118
:100D10008E0380936C038BE693E00E94B511609381
:100D200060037093610380936203909363038091E7
:100D30008F0380936603809190038093650384E61C
:100D400093E00E94B51160935C0370935D03809300
:100D50005E0390935F0330918D0320918F032317DF
:100D600070F4DC01CB0180589E4AAE4FBF4F809398
:100D70005C0390935D03A0935E03B0935F03809147
:100D8000600390916103A0916203B0916303C81660
:100D9000D906EA06FB0608F466C080915C039091D0
:100DA0005D03A0915E03B0915F038C159D05AE05B8
:100DB000BF0508F458C081E08093C8038091CA033E
:100DC000882319F0813021F150C020919D0330918A
:100DD0009E0340919F035091A0036091CE037091B8
:100DE000CF038091D0039091D1030E94961C87FD80
:100DF0003CC080917F03811105C061E080911E019C
:100E00000E94991681E080937F038093CA032DC0CE
:100E10006091880370E080E090E00E94E61B9B01F7
:100E2000AC0160919D0370919E0380919F0390910E
:100E3000A0030E94E21A9B01AC016091CE03709165
:100E4000CF038091D0039091D1030E94471B1816C5
:100E500064F010927F0360E080911E010E94991659
:100E60001092CA0302C01092C8038091C903811175
:100E700013C08091C80381110FC080917F0381301E
:100E800039F460E080911E010E94991610927F0350
:100E90001092CB031092CA030E9438028091CC03B7
:100EA0009091CD03009719F1019709F052C040E0ED
:100EB00060E087EF93E00E94F9086AEC72E087EF48
:100EC00093E00E9407174091CE035091CF036091A9
:100ED000D0037091D10322E030E087EF93E00E94CD
:100EE000A9188091CC039091CD0301971FC040E0D9
:100EF00060E087EF93E00E94F90860EC72E087EF12
:100F000093E00E9407174091D2035091D303609160
:100F1000D4037091D50322E030E087EF93E00E9484
:100F2000A9188091CC039091CD0301969093CD03A5
:100F30008093CC0360ED77E080E090E0CF91FF906C
:100F4000EF90DF90CF90BF90AF909F908F900C94D8
:100F5000CB1540E060E087EF93E00E94F90864ED74
:100F600072E087EF93E0CF91FF90EF90DF90CF900A
:100F7000BF90AF909F908F900C940717FC01138245
:100F8000128286E293E091838083442311F082E011
:100F900001C081E0838722876187148216860895C5
:100FA000682F82E194E00C94C812CF93DF93D62F80
:100FB000C72FFC0191859062692F70E082E194E077
:100FC0000E942B1382E10E94D0078D2F0E94D00730
:100FD0008C2F0E94D00782E194E00E94401381117F
:100FE000FACFDF91CF910895CF93C62FFC01918561
:100FF0009062692F70E082E194E00E942B1383E1FC
:101000000E94D0078C2F0E94D00782E194E00E94BA
:1010100040138111FACFCF910895CF93C62FFC01D1
:1010200091859062692F70E082E194E00E942B1319
:1010300089E00E94D0078C2F0E94D00782E194E0C3
:101040000E9440138111FACFCF910895FC0183854E
:101050008823A1F18285882311F087E0682786859F
:101060008130E1F460FD03C080EC91E002C080E8D3
:1010700091E09587848761FF05C0848595858F778A
:101080009587848762FF05C0848595859E7F9587B7
:10109000848764857585CF010C94D5078581662387
:1010A00011F0886001C0877F8583858183FF02C03E
:1010B00060E801C060E0CF010C940D080895CF9264
:1010C000DF92FF920F931F93CF93DF931F92CDB7C1
:1010D000DEB76C01162F042FFC018685813009F0E4
:1010E0003BC0658514FD606115FD686016FD646098
:1010F00017FD6260262F002311F0206A01C02062D4
:10110000622FC60129830E94F4072981622F6F7D17
:10111000C6010E94F407F601658510FD606111FDAE
:10112000686012FD646013FD6260162F002311F0E9
:10113000106A01C01062612FC6010E94F407612F7E
:101140006F7DC6010F90DF91CF911F910F91FF909E
:10115000DF90CF900C94F407862F807F90E09595D8
:101160008795442311F0866001C08460F601958163
:1011700093FF02C090E801C090E0F92EF82A6F2D8D
:10118000C6010E940D086F2D6B7FC6010E940D08DD
:101190001F70110F110F110F002311F0166001C005
:1011A0001460F601858183FF02C080E801C080E001
:1011B000182B612FC6010E940D08612F6B7FC6019D
:1011C0000F90DF91CF911F910F91FF90DF90CF9003
:1011D0000C940D0840E00C945F08FC012385222349
:1011E00039F061E00E94EA0880ED97E00C94F11577
:1011F0000895CF93DF93CDB7DEB728970FB6F89455
:10120000DEBF0FBECDBFFC012385222319F128E0EC
:10121000E2E3F1E0DE01119601900D922A95E1F7EB
:10122000FC012781241710F44FEF420FFE01319685
:10123000E40FF11DE40FF11D2081260F2068622FBD
:1012400028960FB6F894DEBF0FBECDBFDF91CF91C9
:101250000C94EA0828960FB6F894DEBF0FBECDBFF7
:10126000DF91CF910895FC012385222339F0658118
:10127000262F246025836C600C94EA080895FC01F5
:101280002385222319F041E00E945F0881E090E06D
:1012900008950F931F93CF93DF93EC01142F022F28
:1012A00062E370E080E090E00E94CB1582E194E080
:1012B0000E9407138E856985606270E08130A1F518
:1012C00082E194E00E942B1380E00E94D0078FE11E
:1012D0000E94D00782E194E00E944013882321F00D
:1012E0008B85823009F464C06985606270E082E1B8
:1012F00094E00E942B138CE00E94D0078FE10E94A3
:10130000D00782E194E00E944013882321F08B856E
:10131000823009F44DC06985606270E082E194E03A
:101320000E942B1381E036C082E194E00E942B13CF
:1013300080E00E94D0078FEF0E94D00780E00E94DB
:10134000D00780E00E94D00780E00E94D00780E0B4
:101350000E94D00780E00E94D00780E00E94D00762
:1013600080E00E94D00780E00E94D00780E00E94C9
:10137000D00782E194E00E944013882319F08B8506
:101380008230B1F06985606270E082E194E00E9491
:101390002B1380E00E94D00780E00E94D00782E1FA
:1013A00094E00E944013882349F08B85823031F409
:1013B0001B86DF91CF911F910F9108958B8582300D
:1013C00011F481E08B87123018F08C8188608C8357
:1013D0001F831886002329F0113019F48C81846052
:1013E0008C838E858130B1F41D861C8613E068E302
:1013F000CE010E94F40768E1CE010E94F40711506B
:10140000B1F768E2CE010E94F40768E0CE010E94C5
:10141000F40720C06CE9CE010E940D0868E9CE01F6
:101420000E940D086CE9CE010E940D0868E9CE010A
:101430000E940D086CE9CE010E940D0868E9CE01FA
:101440000E940D0864E9CE010E940D0860E9CE01FA
:101450000E940D0865E070E080E090E00E94CB15EE
:101460006C816062CE010E94EA0865E070E080E075
:1014700090E00E94CB156C816062CE010E94EA0868
:1014800065E070E080E090E00E94CB158CE08D83F9
:10149000CE010E943309CE010E94ED0882E08E83C6
:1014A00066E0CE01DF91CF911F910F910C94EA0875
:1014B0000895FC0188E59AE0928B818B76836583A1
:1014C0001482108289E0818381E08283838308957E
:1014D000FC0184810895CF93DF93EB0167E0CE0197
:1014E0000E94861091E02F81821390E0892FDF9176
:1014F000CF910895EF92FF920F931F93CF93DF93B5
:1015000000D0CDB7DEB77C018A01FC0185819681D0
:1015100069837A830E94910E69817A81F7018581BE
:1015200096810E948D0F40E06EEBF70185819681D8
:101530000E942E0FF701858196810E94700FF8019D
:101540008083F701858196810E94700FF801818365
:10155000F701858196810E94700FF8018283F7015F
:10156000858196810E94700FF8018383F701858140
:1015700096810E94700FF8018483F701858196811E
:101580000E94700FF8018583F701858196810E9482
:10159000700FF8018683F701858196810E94700F94
:1015A000F8018783F701858196810E94700FF80109
:1015B0008087F701858196810F900F90DF91CF9101
:1015C0001F910F91FF90EF900C94910ECF93DF93AA
:1015D000EA010E947A0A68E0CE010E94861091E03A
:1015E0002885821390E0892FDF91CF910895EF92A3
:1015F000FF920F931F93CF93DF93EC018B017A013E
:101600008D819E810E94910EB8018D819E810E94E4
:101610008D0F40E06EE48D819E810E942E0F40E090
:10162000F70162818D819E810E942E0F40E0F701BB
:1016300063818D819E810E942E0FF801808180310F
:1016400039F040E0F70164818D819E810E942E0F68
:101650008D819E810E94910EB8018D819E810E9494
:101660008D0F488168E48D819E810E942E0F64E178
:1016700070E080E090E00E94CB158881882331F0F3
:101680006AE070E080E090E00E94CB158D819E8141
:10169000DF91CF911F910F91FF90EF900C94910EDD
:1016A000EF92FF921F93CF93DF9300D0CDB7DEB7B9
:1016B0007C01FC018581968169837A830E94910E69
:1016C00069817A81F701858196810E948D0F40E0C2
:1016D00064EBF701858196810E942E0FF7018581C9
:1016E00096810E94030F182FF701858196810E9431
:1016F000910E81E0111180E00F900F90DF91CF915A
:101700001F91FF90EF900895EF92FF920F931F9318
:10171000CF93DF93CDB7DEB72A970FB6F894DEBF2D
:101720000FBECDBF7C018B01242FAE014F5F5F4FF9
:101730002A870E94E60A2A858823D1F0F801808151
:101740008031C1F02B3041F02C3021F02A3031F4BF
:101750008FE305C08FE703C08FE501C08FE18D8364
:10176000AE014F5F5F4FB801C7010E94F70A02C088
:1017700080E001C081E02A960FB6F894DEBF0FBE6C
:10178000CDBFDF91CF911F910F91FF90EF90089502
:10179000CF93DF93CDB7DEB729970FB6F894DEBFAE
:1017A0000FBECDBFFB0120812031D1F0AE014F5FD4
:1017B0005F4F0E94E60A882379F08D818F3351F0C4
:1017C00020F48F3149F489E00CC08F3539F08F3720
:1017D00039F002C08AE005C080E003C08BE001C0A0
:1017E0008CE029960FB6F894DEBF0FBECDBFDF9117
:1017F000CF910895EF92FF920F931F93CF93DF93B2
:10180000CDB7DEB761970FB6F894DEBF0FBECDBF80
:101810008C01FC01858196810E94B90FF801148228
:10182000FF24F394BE01665F7F4FF80185819681A6
:101830000E94EE0F8823C9F1BE01665F7F4FC80189
:101840000E946B0A882371F3F8018081811108C01E
:10185000BE01665F7F4FC8010E94500B811122C0FC
:10186000AE014F5F5F4FBE01665F7F4FC8010E94B0
:101870007A0AF801E180BE01665F7F4FC8010E94CD
:10188000C80B8E1518F4F801818106C0BE01665F91
:101890007F4FC8010E94C80BF801818384818F5F4C
:1018A0008483C0CFF801F082DBCF61960FB6F89445
:1018B000DEBF0FBECDBFDF91CF911F910F91FF9083
:1018C000EF900895CF93DF93CDB7DEB729970FB68A
:1018D000F894DEBF0FBECDBFAE014F5F5F4F0E94D9
:1018E0007A0A81E09981911101C080E029960FB6B2
:1018F000F894DEBF0FBECDBFDF91CF9108958F92D8
:101900009F92AF92BF92CF92DF92EF92FF920F938E
:101910001F93CF93DF93EC018A016950633048F441
:10192000E62FF0E0EE0FFF1FE65DFC4F8081918116
:1019300002C08EEE92E04C01AA2497FCA094BA2C2F
:1019400001151105E1F08B818823C9F0888181118F
:1019500016C00E949C156B017C01C80CD91CEA1CA6
:10196000FB1CB801CE010E94620C811118C00E94BC
:101970009C156C157D058E059F0588F4F2CFC50179
:10198000B401DF91CF911F910F91FF90EF90DF9005
:10199000CF90BF90AF909F908F900C94CB15DF911C
:1019A000CF911F910F91FF90EF90DF90CF90BF905C
:1019B000AF909F908F900895CF93DF93EC018D812E
:1019C0009E810E94910E8D819E810E94B50F48815B
:1019D00064E48D819E810E942E0F8A81882341F0CC
:1019E00040E050E06981CE01DF91CF910C947F0CF3
:1019F000DF91CF910895FA01208148E0249F900162
:101A00001124818190E0982F8827990F990F990FC1
:101A1000282B392BDB018C918031C1F4678170E078
:101A20008681AB01481B5109CA019695982F8827DA
:101A3000979587950E94091D60517109207F53E099
:101A4000220F331F5A95E1F7260F371FC90108955A
:101A5000EF92FF920F931F93CF93DF93CDB7DEB733
:101A600029970FB6F894DEBF0FBECDBF8C017B0166
:101A7000AE014F5F5F4F0E94E60A882341F0AE013E
:101A80004F5F5F4FB701C8010E94FB0C02C080E8A6
:101A900094EE29960FB6F894DEBF0FBECDBFDF914E
:101AA000CF911F910F91FF90EF900895FC018081DD
:101AB0000895813824EE920774F0BC01882777FDE1
:101AC0008095982F0E94E61B20E030E040E05CE328
:101AD0000E949A1C089560E070E08EEF92EC0895E9
:101AE0000E94280D0C94590D6AE00E94FD1C20E113
:101AF000829F900D1124892F0895982F92959F70A1
:101B00008F702AE0929F800D1124089582E194E065
:101B10000C940713CF93DF93EC0168E670E082E149
:101B200094E00E942B1360E082E194E00E94C812CE
:101B300088810E94740D682F82E194E00E94C8128F
:101B400089810E94740D682F82E194E00E94C8127E
:101B50008A810E94740D682F82E194E00E94C8126D
:101B60008B810E94740D682F82E194E00E94C8125C
:101B70008C810E94740D682F82E194E00E94C8124B
:101B80008D810E94740D682F82E194E00E94C8123A
:101B90008E818E510E94740D682F82E194E00E9424
:101BA000C81282E194E00E944013882321F0109231
:101BB000060480E003C081E080930604DF91CF91AA
:101BC0000895CF93DF93CDB7DEB727970FB6F8947C
:101BD000DEBF0FBECDBFAE014F5F5F4F0E949210C0
:101BE000898180688983CE0101960E948A0D89814E
:101BF0008F778983CE0101960E948A0D27960FB6B2
:101C0000F894DEBF0FBECDBFDF91CF9108951F9333
:101C1000CF93DF93EC0168E670E082E194E00E94EC
:101C20002B1360E082E194E00E94C81282E194E00C
:101C30000E944013882319F0109206044CC081E0E2
:101C40008093060447E050E068E670E082E194E0AB
:101C50000E941E1382E194E00E9470120797DCF14B
:101C600082E194E00E947812182F8F770E947D0DF8
:101C7000888382E194E00E9478120E947D0D89831E
:101C800082E194E00E9478128F730E947D0D8A8316
:101C900082E194E00E9478120E947D0D8B8382E1A4
:101CA00094E00E9478120E947D0D8C8382E194E082
:101CB0000E9478120E947D0D8D8382E194E00E9443
:101CC00078120E947D0D825E8E83812F8095881F01
:101CD0008827881F01C080E0DF91CF911F91089570
:101CE000CF93DF93CDB7DEB727970FB6F894DEBF5B
:101CF0000FBECDBFCE0101960E94070E882329F0AA
:101D0000CE0101960E94B51103C060E070E0CB01E6
:101D100027960FB6F894DEBF0FBECDBFDF91CF91EF
:101D20000895FF920F931F93CF93DF93FC010081DF
:101D3000C181D281F8948981F02EF0948F2189831A
:101D400078941DE7115029F182E090E00E94F1158E
:101D500088818023B9F3F8948A818F218A838981CD
:101D6000802B8983789480EE91E00E94F115F8949D
:101D700089818F21898386E490E00E94F115888112
:101D8000802311E009F010E078948AE991E00E9444
:101D9000F115812FDF91CF911F910F91FF90089541
:101DA0001F93CF93DF93FC011081C181D281912FCA
:101DB000909560FF12C0F8948A8189238A83898173
:101DC000812B89838AE090E00E94F1158A81812B22
:101DD0008A83789487E390E011C0F8948A818923FC
:101DE0008A838981812B898381E490E00E94F115A7
:101DF0008A81812B8A83789485E090E0DF91CF916E
:101E00001F910C94F1150F931F93CF93DF93FC0157
:101E10001081C181D281F8948981812B89838A8143
:101E2000012F009580238A8383E090E00E94F115C2
:101E30008981802389838AE090E00E94F115C8811E
:101E4000789485E390E00E94F1151C2381E009F469
:101E500080E0DF91CF911F910F910895CF92DF9293
:101E6000EF92FF920F931F93CF93DF931F92CDB703
:101E7000DEB76C01E62E08E010E0FF24F39461E089
:101E80009F2D9E2109F460E0C60149830E94D00E77
:101E9000FF0C0150110949810115110581F741110C
:101EA00015C0F894D6011196ED91FC91129791818D
:101EB0008C918095892381831196ED91FC911297E5
:101EC00092818C9180958923828378940F90DF9101
:101ED000CF911F910F91FF90EF90DF90CF900895D9
:101EE000EF92FF920F931F93CF93DF938C01C8E083
:101EF000D0E0F12CEE24E394C8010E94030F81117D
:101F0000FE28EE0C21972097B9F78F2DDF91CF9106
:101F10001F910F91FF90EF900895CF92DF92FF9263
:101F20000F931F93CF93DF931F92CDB7DEB78C0132
:101F3000F62E40E065E579830E942E0FCF2C798143
:101F4000D72E88E0F82EF60161916F0140E0C801BC
:101F50000E942E0FFA94B9F70F90DF91CF911F9145
:101F60000F91FF90DF90CF90089540E06CEC0C94BF
:101F70002E0FFC0113861586148627E030E0DF0162
:101F8000A20FB31F13961C922115310519F0215091
:101F90003109F5CF08951F93CF93DF93EC01162FEE
:101FA00060E0812F0E946016612F70E0FB01E45811
:101FB000FE4FE491E883FB01E057FE4FE491F0E02F
:101FC000EE0FFF1FEC55FE4F859194919A83898304
:101FD000CE01DF91CF911F910C94B90FAF92BF92B8
:101FE000CF92DF92EF92FF920F931F93CF93DF93E5
:101FF0001F92CDB7DEB75C01E62ED72EFC0185859A
:1020000081115DC0C5010E94910E811105C0F501CD
:102010001386158614866EC040E060EFC5010E94ED
:102020002E0F01E0F12CC12C11E0C5010E94030F1D
:10203000682FC50169830E94030F6981613019F41B
:102040008130B9F433C02F2D30E068131BC0F50187
:102050008385181730F4E20FF31F8381802349F43E
:1020600002C0181731F060E0193058F4F5011487F8
:1020700008C0F501EF0DF11D8381802B838361E0A2
:1020800009C0C12EF501E20FF31F8381902F9095B7
:1020900089238383C5010E94D00E1F5F000F11F4B6
:1020A000F39401E0F7E0FF1508F0BFCF113438F0EA
:1020B000F501C386C11018C081E0858715C0F50100
:1020C00013861586148680E0EE2DFD2D20E030E08D
:1020D000D501A20FB31F13969C9191932F5F3F4F91
:1020E00028303105A9F706C0F5018381882339F32B
:1020F00081E0EACF0F90DF91CF911F910F91FF9078
:10210000EF90DF90CF90BF90AF900895DC0180E01A
:10211000615038F0ED91E827F0E0E859FF4F8491E5
:10212000F7CF08956F927F928F929F92AF92BF9256
:10213000CF92DF92EF92FF920F931F93CF93DF9393
:10214000EA012CE3C22ED12CE12CF12CA70196013F
:102150000E941D1D6883CA01B901A70196010E9452
:102160001D1D6983CA01B90128E130E040E050E05B
:102170000E941D1D49015A016A83CA01B9016C5FA1
:102180007F4F8F4F9F4F27E030E040E050E00E94AC
:102190001D1D6F5F6B8300E010E0980140E054E686
:1021A000652E712C60E9C62EDD24D394E42FF0E077
:1021B000EE54F84F7F0183E0E822FF24E114F1049C
:1021C00089F4CF01B3010E94091D892B29F08EE605
:1021D00091E0A0E0B0E00AC0CF01B6010E94091D65
:1021E000892BA9F38DE691E0A0E0B0E0080F191F5C
:1021F0002A1F3B1FD901C801AA27BB2788169906A9
:10220000AA06BB0610F04F5FD1CF4E83E114F10454
:1022100099F4CF0164E670E00E94091D892B29F032
:102220008EE691E0A0E0B0E00BC0CF0160E971E084
:102230000E94091D892BA1F38DE691E0A0E0B0E09A
:10224000081B190B2A0B3B0B801A910AA20AB30A2E
:10225000CF0164E670E00E94091D9C01CF0160E996
:1022600071E00E94091DE0E3F3E0A0E0A13059F421
:10227000E114F10451F42115310511F04DE106C0CE
:102280000097E1F302C0408101C04CE150E060E002
:1022900070E084169506A606B70640F0841A950AE3
:1022A000A60AB70AAF5F3196AC3001F7AF5FAD83D6
:1022B00083948C82DF91CF911F910F91FF90EF90CB
:1022C000DF90CF90BF90AF909F908F907F906F9056
:1022D0000895CF92DF92EF92FF926B017C01809183
:1022E000070490910804A0910904B0910A04C8164B
:1022F000D906EA06FB0671F04BE054E0C701B601CF
:102300000E949210C0920704D0920804E09209043F
:10231000F0920A04FF90EF90DF90CF9008950E9412
:10232000691180910D0490E008950E9469118091D7
:102330000C0490E008950E94691180910B0490E0D4
:1023400008950E94691180910F0490E008950E9401
:1023500069118091100490E008950E9469118091A4
:10236000110490E08E54984F08956F927F928F924F
:102370009F92AF92BF92CF92DF92EF92FF920F9314
:102380001F93CF93DF93FC01C680AC2DB0E020E813
:1023900033E341EE51E00E944E1D4B015C0122EB04
:1023A00037E06D01C4E6D0E000E911E0C901825BCD
:1023B00097408C159D05DCF4C90183709927892B02
:1023C00099F4C901BE010E94091D892B31F4C9018C
:1023D000B8010E94091D892B39F480E8880E81E537
:1023E000981E81E0A81EB11C2F5F3F4FDFCF658094
:1023F000712C8EE4C81A88EFD80AC60164E670E032
:102400000E94091D8C01C60160E971E00E94091D4E
:102410007C01C1E0D0E083E0C822DD24C615D705E9
:102420002CF5C230D10589F4C114D10471F4011521
:10243000110519F4E114F10441F480E8880E8BE3EE
:10244000981E86E2A81EB11C0FC0DE01A15DBC4F24
:10245000AC91B0E020E831E541E050E00E944E1D33
:10246000860E971EA81EB91E2196D8CF41812281C3
:1024700030E0A0E1BEE00E943F1D6B017C01242FF3
:1024800030E0ACE3B0E00E943F1DC60ED71EE81E50
:10249000F91E8081C80ED11CE11CF11CA481B0E0A2
:1024A000119720E831E541E050E00E94591DC60E29
:1024B000D71EE81EF91EC80CD91CEA1CFB1CC7015C
:1024C000B601DF91CF911F910F91FF90EF90DF90B8
:1024D000CF90BF90AF909F908F907F906F90089516
:1024E0008091420490E020914304821B9109089559
:1024F0002091430480914204281750F4E22FF0E029
:10250000EC5BFB4F808190E02F5F209343040895A4
:102510008FEF9FEF0895E091430480914204E81704
:1025200030F4F0E0EC5BFB4F808190E008958FEF9A
:102530009FEF08950895CF92DF92EF92FF920F934D
:102540001F93CF93DF937C01CB018A0120911E045E
:10255000222389F0EB016B01C40ED51ECC15DD05DD
:1025600069F06991D701ED91FC910190F081E02D26
:10257000C7010995F3CF642F0E94FC13C801DF91B6
:10258000CF911F910F91FF90EF90DF90CF90089522
:10259000CF93DF931F92CDB7DEB7698320911E04DE
:1025A0002223D1F020911F04203240F021E030E0BE
:1025B000FC013383228380E090E015C080912004E9
:1025C000E82FF0E0EF5DFB4F998190838F5F809360
:1025D000200480931F0405C061E0CE0101960E9493
:1025E000FC1381E090E00F90DF91CF910895FC0102
:1025F0001382128248EE53E060E070E0448355831A
:102600006683778380E493E09183808308951092BA
:102610004304109242041092200410921F040C9460
:102620004713862F413208F040E264E474E00E94D0
:1026300065131092430480934204089521E00C94A2
:10264000111381E080931E046093410410922004D2
:1026500010921F0408950C9421130F93062F21E06C
:1026600040911F0461E274E0809141040E94A9132B
:102670001092200410921F0410921E040F910895CE
:1026800061E00C942D1382E194E00C94F712109207
:10269000D10481E08093CF041092CE0461E082E106
:1026A0000E94991661E083E10E949916E9EBF0E03F
:1026B00080818E7F808380818D7F808388E480937A
:1026C000B80085E48093BC000895413208F03FC013
:1026D0009091D1049111FCCF91E09093D10420937B
:1026E000CF042FEF209364041092A904240F2093A9
:1026F000A8049093D0049091D004880F892B8093E4
:10270000D0048091CE04813041F41092CE048091A7
:10271000D0048093BB0085EC01C085EE8093BC00A3
:102720008091D1048130E1F38091A904841710F4E1
:102730004091A9042AEA34E0FB01D9018A2F821BC7
:10274000841718F48D918193F9CF842F089580E038
:1027500008950F93413208F046C09091D104911131
:10276000FCCF92E09093D1040093CF049FEF90931D
:1027700064041092A9044093A804FB016AEA74E07F
:10278000DB019A2F961B941718F491919D93F9CF22
:102790001092D0049091D004880F892B8093D0049C
:1027A0008091CE04813041F41092CE048091D00407
:1027B0008093BB0085EC01C085EE8093BC00222392
:1027C00021F08091D1048230E1F3809164048F3F45
:1027D00061F080916404803251F080916404803310
:1027E00041F483E007C081E005C080E003C082E0DF
:1027F00001C084E00F910895613298F42091D104D2
:10280000243089F460938604FC0188E894E0DC01BC
:102810002A2F281B261718F421912D93F9CF80E039
:10282000089581E0089582E0089585ED8093BC00CD
:102830008091BC0084FDFCCF1092D104089585ECFA
:102840008093BC001092D10408951F920F920FB68E
:102850000F9211242F933F934F935F936F937F9326
:102860008F939F93AF93BF93EF93FF938091B900A2
:10287000887F803609F49CC068F5883209F45BC013
:1028800090F4803109F454C038F4882309F4F5C079
:10289000883009F44DC0F5C0883109F44CC080324D
:1028A00009F45DC0EEC0803409F468C048F4803398
:1028B00009F455C0883309F0E4C080936404A8C0CB
:1028C000803509F44FC0883509F45DC0883409F0BB
:1028D000D8C0D5C0883909F4C6C0A8F4883709F42F
:1028E00067C038F4883609F463C0803709F460C0E3
:1028F000C8C0883809F4B7C0803909F45FC080388F
:1029000009F0BFC05BC0803B09F485C038F4803A51
:1029100009F466C0883A09F47EC0B3C0803C09F46B
:10292000A6C0883C09F4A3C0883B09F489C0A9C0AB
:102930008091D00410C09091A9048091A8049817A8
:1029400070F5E091A90481E08E0F8093A904F0E076
:10295000E655FB4F80818093BB0085EC85C080935A
:1029600064048DC0E091A90481E08E0F8093A904D6
:102970008091BB00F0E0E655FB4F80839091A90465
:102980008091A8046DC0E091A90481E08E0F80932E
:10299000A9048091BB00F0E0E655FB4F8083809155
:1029A000CF0481116CC081E08093CE0484EA60C0C2
:1029B00083E08093D10410926504CFCF80916504A9
:1029C000803208F050C0E091650481E08E0F809362
:1029D00065048091BB00F0E0EA59FB4F8083BDCFD6
:1029E00080916504803230F4E0916504F0E0EA59AA
:1029F000FB4F10820E9415146091650470E0E09115
:102A0000CA04F091CB0486E694E00995109265041F
:102A10000E941F1436C084E08093D1041092870472
:102A200010928604E091CC04F091CD040995809138
:102A30008604811105C081E0809386041092880489
:102A4000E091870481E08E0F80938704F0E0E857DF
:102A5000FB4F80818093BB00909187048091860416
:102A6000981708F47ACF85E88093BC000AC085ECFB
:102A70008093BC001092D10404C0109264040E94A0
:102A80001514FF91EF91BF91AF919F918F917F911D
:102A90006F915F914F913F912F910F900FBE0F90CB
:102AA0001F9018951F920F920FB60F9211242F931B
:102AB0003F938F939F93AF93BF938091D304909153
:102AC000D404A091D504B091D6043091D20423E06F
:102AD000230F2D3720F40196A11DB11D05C026E856
:102AE000230F0296A11DB11D2093D2048093D3041D
:102AF0009093D404A093D504B093D6048091D704C6
:102B00009091D804A091D904B091DA040196A11D46
:102B1000B11D8093D7049093D804A093D904B093A7
:102B2000DA04BF91AF919F918F913F912F910F90B8
:102B30000FBE0F901F9018952FB7F8946091D30493
:102B40007091D4048091D5049091D6042FBF08953C
:102B50003FB7F8948091D7049091D804A091D904FC
:102B6000B091DA0426B5A89B05C02F3F19F0019655
:102B7000A11DB11D3FBF6627782F892F9A2F620FA5
:102B8000711D811D911D42E0660F771F881F991FDF
:102B90004A95D1F70895CF92DF92EF92FF92CF93AB
:102BA000DF936B017C010E94A815EB01C114D104D5
:102BB000E104F10479F00E94A8156C1B7D0B683EBE
:102BC0007340A0F381E0C81AD108E108F108C851A8
:102BD000DC4FECCFDF91CF91FF90EF90DF90CF9063
:102BE00008950197009739F0880F991F880F991F52
:102BF00002970197F1F70895789484B5826084BDB7
:102C000084B5816084BD85B5826085BD85B58160F0
:102C100085BDEEE6F0E0808181608083E1E8F0E050
:102C20001082808182608083808181608083E0E87F
:102C3000F0E0808181608083E1EBF0E0808184605E
:102C40008083E0EBF0E0808181608083EAE7F0E060
:102C500080818460808380818260808380818160C4
:102C600080838081806880831092C10008958330C2
:102C700081F028F4813099F08230A1F008958630F7
:102C8000A9F08730B9F08430D1F4809180008F7D35
:102C900003C0809180008F7780938000089584B571
:102CA0008F7702C084B58F7D84BD08958091B00078
:102CB0008F7703C08091B0008F7D8093B00008951E
:102CC000CF93DF9390E0FC01E458FE4F2491FC0188
:102CD000E057FE4F8491882349F190E0880F991FB7
:102CE000FC01E854FE4FA591B49182559E4FFC0122
:102CF000C591D4919FB7611108C0F8948C9120952B
:102D000082238C93888182230AC0623051F4F89424
:102D10008C91322F309583238C938881822B8883EA
:102D200004C0F8948C91822B8C939FBFDF91CF913C
:102D300008950F931F93CF93DF931F92CDB7DEB704
:102D4000282F30E0F901E859FE4F8491F901E45849
:102D5000FE4F1491F901E057FE4F04910023C9F092
:102D6000882321F069830E9437166981E02FF0E003
:102D7000EE0FFF1FE255FE4FA591B4919FB7F89457
:102D80008C91611103C01095812301C0812B8C931C
:102D90009FBF0F90DF91CF911F910F910895CF9218
:102DA000DF92EF92FF920F931F93CF93DF936C010B
:102DB0007A01EB01E60EF71E00E010E0CE15DF050C
:102DC00061F06991D601ED91FC910190F081E02DC7
:102DD000C6010995080F191FF1CFC801DF91CF91E6
:102DE0001F910F91FF90EF90DF90CF900895DB013E
:102DF0000D900020E9F7AD0141505109461B570BDA
:102E0000DC01ED91FC910280F381E02D09940C949A
:102E1000F716DC01ED91FC910190F081E02D099411
:102E20000F931F93CF93DF93EC016DE00E9409177E
:102E30008C016AE0CE010E940917800F911FDF917B
:102E4000CF911F910F9108950F931F93CF93DF930D
:102E5000EC010E94F7168C01CE010E941017800F22
:102E6000911FDF91CF911F910F9108958F929F92A3
:102E7000AF92BF92CF92DF92EF92FF920F931F9388
:102E8000CF93DF93CDB7DEB7A1970FB6F894DEBF2F
:102E90000FBECDBF7C01C42EE52FCB01D22E19A2CF
:102EA00021E02D1510F02AE0D22E8E010F5D1F4F6C
:102EB0008D2C912CA12CB12C6C2D7E2FA501940171
:102EC0000E941D1D8C2DD29E8019112401501109C4
:102ED0008A3014F4805D01C0895CF801808321157B
:102EE00031054105510521F0C22EE32FCA01E4CF7F
:102EF000B801C7010E94F716A1960FB6F894DEBF7D
:102F00000FBECDBFDF91CF911F910F91FF90EF903A
:102F1000DF90CF90BF90AF909F908F900895CF9209
:102F2000DF92EF92FF920F931F93CF93DF93EC0109
:102F30006A017B012115310579F4E881F98101905D
:102F4000F081E02D642FDF91CF911F910F91FF90C1
:102F5000EF90DF90CF9009942A303105E9F477FFA4
:102F60001AC06DE20E9409178C0144275527BA0147
:102F70004C195D096E097F092AE0CE010E943617BF
:102F8000800F911FDF91CF911F910F91FF90EF90D4
:102F9000DF90CF9008952AE0B701A601CE01DF911E
:102FA000CF911F910F91FF90EF90DF90CF900C94F5
:102FB00036179A01AB01662757FD6095762F0C9462
:102FC0008F170F931F93CF93DF93EC019A01AB01FF
:102FD000662757FD6095762F0E948F178C01CE01D2
:102FE0000E941017800F911FDF91CF911F910F91B9
:102FF00008952115310541F4DC01ED91FC9101901A
:10300000F081E02D642F09940C9436179A01462F15
:1030100050E060E070E00C94F9174F925F926F926D
:103020007F928F929F92AF92BF92CF92DF92EF9258
:10303000FF920F931F93CF93DF93EC016A017B0103
:10304000B22E20E030E0A901C701B6010E94471B63
:1030500087FF0AC06DE2CE010E9409178C01F7FAC2
:10306000F094F7F8F09402C000E010E0A12C60E0CA
:1030700070E080E09FE3AB1441F020E030E040E2FC
:1030800051E40E944B1BA394F6CF9B01AC01C701F6
:10309000B6010E94E31A6B017C010E94B81B2B0150
:1030A0003C010E94E41B9B01AC01C701B6010E94D8
:1030B000E21A6B017C012AE0B301A201CE010E9459
:1030C0003617080F191FBB2039F069ED71E0CE01EA
:1030D0000E94F716080F191F7B2C772041F120E082
:1030E00030E040E251E4C701B6010E949A1C6B0136
:1030F0007C010E94B31B4B01AA2497FCA094BA2C1C
:103100002AE030E0B501A401CE010E948F17080F1C
:10311000191FC501B4010E94E61B9B01AC01C70148
:10312000B6010E94E21A6B017C017A94D6CFC801E5
:10313000DF91CF911F910F91FF90EF90DF90CF9093
:10314000BF90AF909F908F907F906F905F904F90C7
:1031500008950C940D180E94FC150E940D03CEECEE
:10316000D9E10E942C042097E1F30E94CE19F9CFF7
:103170000F931F93CF93DF93EC010E949C156887F8
:1031800079878A879B87E881F9810680F781E02D1E
:10319000CE01099597FF15C00E949C1508851985D9
:1031A0002A853B85601B710B820B930B0C811D8163
:1031B0002E813F81601771078207930720F38FEFFD
:1031C0009FEFDF91CF911F910F910895CF92DF92E2
:1031D000EF92FF920F931F93CF93DF937C016A01CD
:1031E000EB0100E010E00C151D0549F0C7010E943D
:1031F000B81897FD04C089930F5F1F4FF4CFC80123
:10320000DF91CF911F910F91FF90EF90DF90CF90C2
:103210000895FC0124853585F901E05CFF4F80812C
:103220009181329620813181821B930B8F73992774
:103230000895FC0184859585FC01E05CFF4F408189
:1032400051813296208131814217530741F001901C
:10325000F081E02DE80FF91F808190E008958FEF55
:103260009FEF0895FC0184859585FC01E05CFF4F8C
:10327000408151813296208131814217530779F084
:10328000A081B181A80FB91F8C91208131812F5F5E
:103290003F4F2F7333273183208390E008958FEFC2
:1032A0009FEF0895FC0186859785FC01E05CFF4F48
:1032B000DC01AE5BBF4F408151812D913C91119754
:1032C00042175307C1F70895CF93DF93FC0186851A
:1032D0009785DC01A05CBF4F2D913C9111972F5F2A
:1032E0003F4F2F733327EC01CE5BDF4F488159816D
:1032F00024173507D9F30D90BC91A02DA80FB91F45
:103300006C93A685B785A05CBF4F11963C932E9316
:10331000A689B7892C9181E090E0058C02C0880FC6
:10332000991F0A94E2F7282B2C9381E090E0DF911B
:10333000CF91089508951F920F920FB60F92112406
:103340002F933F934F938F939F93EF93FF934091CE
:10335000C60080917E0590917F0501968F73992715
:1033600020918005309181058217930759F0E091F3
:103370007E05F0917F05E25CFA4F408390937F05D4
:1033800080937E05FF91EF919F918F914F913F9197
:103390002F910F900FBE0F901F9018958BED94E01A
:1033A0000E940919892B11F00C949A1908951F9203
:1033B0000F920FB60F9211242F933F938F939F93E9
:1033C000EF93FF9320913A0530913B0580913C05A6
:1033D00090913D052817390731F48091C1008F7D08
:1033E0008093C10014C0E0913C05F0913D05E6508A
:1033F000FB4F208180913C0590913D0501968F7394
:10340000992790933D0580933C052093C600FF913A
:10341000EF919F918F913F912F910F900FBE0F9041
:103420001F901895CF92DF92EF92FF92CF93DF9388
:10343000EC016A017B01411581EE580761057105B8
:10344000F9F0EC89FD8981E090E00E8C02C0880FD4
:10345000991F0A94E2F7808360E079E08DE390E0C1
:10346000A70196010E941D1D2150310941095109F2
:103470005695479537952795211580E1380798F09F
:10348000EC89FD89108260E874E88EE190E0A70184
:1034900096010E941D1D215031094109510956957F
:1034A000479537952795E889F9893083EA89FB891B
:1034B0002083EE89FF89408181E090E09C010A8CA5
:1034C00002C0220F331F0A94E2F7422B4083EE8999
:1034D000FF8940819C010B8C02C0220F331F0A948C
:1034E000E2F7422B4083EE89FF8940819C010C8CDE
:1034F00002C0220F331F0A94E2F7422B4083EE8969
:10350000FF8920810D8C02C0880F991F0A94E2F771
:10351000809582238083DF91CF91FF90EF90DF90A1
:10352000CF9008951092DE041092DD0488EE93E0AF
:10353000A0E0B0E08093DF049093E004A093E10466
:10354000B093E20480E593E09093DC048093DB0485
:103550008EE395E09093E8048093E7048AEF94E08B
:103560009093EA048093E90485EC90E09093EC0456
:103570008093EB0484EC90E09093EE048093ED0450
:1035800080EC90E09093F0048093EF0481EC90E065
:103590009093F2048093F10486EC90E09093F4040D
:1035A0008093F30484E08093F50483E08093F60431
:1035B00087E08093F70485E08093F80481E08093AE
:1035C000F90408955058BB27AA270ED075C166D1BB
:1035D00030F06BD120F031F49F3F11F41EF45BC149
:1035E0000EF4E095E7FB51C1E92F77D180F3BA17CC
:1035F000620773078407950718F071F49EF58FC171
:103600000EF4E0950B2EBA2FA02D0B01B9019001FD
:103610000C01CA01A0011124FF27591B99F0593F41
:1036200050F4503E68F11A16F040A22F232F342F89
:103630004427585FF3CF469537952795A795F040D7
:103640005395C9F77EF41F16BA0B620B730B840BEC
:10365000BAF09150A1F0FF0FBB1F661F771F881FA4
:10366000C2F70EC0BA0F621F731F841F48F48795FC
:1036700077956795B795F7959E3F08F0B3CF9395EB
:10368000880F08F09927EE0F979587950895D9D060
:1036900008F481E008950CD00FC107D140F0FED0AE
:1036A00030F021F45F3F19F0F0C0511139C1F3C07F
:1036B00014D198F39923C9F35523B1F3951B550BF6
:1036C000BB27AA2762177307840738F09F5F5F4FF5
:1036D000220F331F441FAA1FA9F333D00E2E3AF036
:1036E000E0E830D091505040E695001CCAF729D050
:1036F000FE2F27D0660F771F881FBB1F261737079F
:103700004807AB07B0E809F0BB0B802DBF01FF27CE
:1037100093585F4F2AF09E3F510568F0B6C000C134
:103720005F3FECF3983EDCF3869577956795B79508
:10373000F7959F5FC9F7880F911D9695879597F923
:103740000895E1E0660F771F881FBB1F621773079C
:103750008407BA0720F0621B730B840BBA0BEE1FB1
:1037600088F7E095089504D06894B111D9C0089500
:10377000BCD088F09F5790F0B92F9927B751A0F08F
:10378000D1F0660F771F881F991F1AF0BA95C9F7F5
:1037900012C0B13081F0C3D0B1E00895C0C0672F2E
:1037A000782F8827B85F39F0B93FCCF386957795A5
:1037B0006795B395D9F73EF490958095709561958E
:1037C0007F4F8F4F9F4F0895E89409C097FB3EF4B9
:1037D00090958095709561957F4F8F4F9F4F99235E
:1037E000A9F0F92F96E9BB279395F69587957795DC
:1037F0006795B795F111F8CFFAF4BB0F11F460FF9C
:103800001BC06F5F7F4F8F4F9F4F16C0882311F0F3
:1038100096E911C0772321F09EE8872F762F05C007
:10382000662371F096E8862F70E060E02AF09A95A2
:10383000660F771F881FDAF7880F9695879597F997
:103840000895990F0008550FAA0BE0E8FEEF161631
:103850001706E807F907C0F012161306E407F50784
:1038600098F0621B730B840B950B39F40A2661F0F8
:10387000232B242B252B21F408950A2609F4A1409B
:10388000A6958FEF811D811D089597F99F6780E8A8
:1038900070E060E008959FEF80EC089500240A94A2
:1038A0001616170618060906089500240A9412161B
:1038B0001306140605060895092E0394000C11F44E
:1038C000882352F0BB0F40F4BF2B11F460FF04C0FB
:1038D0006F5F7F4F8F4F9F4F089557FD9058440F54
:1038E000551F59F05F3F71F04795880F97FB991F5F
:1038F00061F09F3F79F0879508951216130614061C
:10390000551FF2CF4695F1DF08C0161617061806A8
:10391000991FF1CF86957105610508940895E89483
:10392000BB2766277727CB0197F908958ADF08F42C
:103930008FEF08950BD0C0CFB1DF28F0B6DF18F0BD
:10394000952309F0A2CFA7CF1124EACFC6DFA0F3B9
:10395000959FD1F3950F50E0551F629FF001729F24
:10396000BB27F00DB11D639FAA27F00DB11DAA1F43
:10397000649F6627B00DA11D661F829F2227B00D90
:10398000A11D621F739FB00DA11D621F839FA00D1B
:10399000611D221F749F3327A00D611D231F849F6B
:1039A000600D211D822F762F6A2F11249F575040C2
:1039B0008AF0E1F088234AF0EE0FFF1FBB1F661F5D
:1039C000771F881F91505040A9F79E3F510570F016
:1039D0005CCFA6CF5F3FECF3983EDCF386957795FE
:1039E0006795B795F795E7959F5FC1F7FE2B880F11
:1039F000911D9695879597F90895991B79E004C0D4
:103A0000991F961708F0961B881F7A95C9F780951D
:103A1000089597FB072E16F4009407D077FD09D080
:103A20000E94611D07FC05D03EF4909581959F4F43
:103A30000895709561957F4F0895A1E21A2EAA1BF3
:103A4000BB1BFD010DC0AA1FBB1FEE1FFF1FA2174E
:103A5000B307E407F50720F0A21BB30BE40BF50B4B
:103A6000661F771F881F991F1A9469F760957095D4
:103A7000809590959B01AC01BD01CF010895A29F57
:103A8000B001B39FC001A39F700D811D1124911D32
:103A9000B29F700D811D1124911D08950E943F1D3C
:103AA000A59F900DB49F900DA49F800D911D112492
:103AB0000895B7FF0C944E1D0E944E1D821B930B60
:103AC0000895AA1BBB1B51E107C0AA1FBB1FA61765
:103AD000B70710F0A61BB70B881F991F5A95A9F7B7
:103AE00080959095BC01CD010895EE0FFF1F0590C4
:103AF000F491E02D09949111DDC2803219F08950C2
:103B00008550D0F70895FB01DC018D91019080195B
:103B10000110D9F3990B0895AEE0B0E0E2E9FDE1C0
:103B20000C94CF2085E08C838B899C899A83898330
:103B3000AE01495E5F4F6D897E89CE0101960E947C
:103B4000231F2E96E2E00C94EB2020FD09C0FC011F
:103B500023FD05C022FF02C073836283518340832B
:103B6000089544FD10C046FD10C0DB01FC01AA0F02
:103B7000BB1FEE1FFF1F1094D1F76A0F7B1F8E1F14
:103B80009F1F31E003C033E001C034E0660F771FB0
:103B9000881F991F3150D1F7620F711D811D911D32
:103BA00008950F931F93CF93DF938C01C8010E9458
:103BB0006820EC0197FD08C00E947B1D892BB1F79E
:103BC000B801CE010E94A620CE01DF91CF911F91B6
:103BD0000F9108958F929F92AF92CF92DF92EF92C2
:103BE000FF920F931F93CF93DF93EC01A62E4A0110
:103BF000022F0E946820AC0155274B32510521F05D
:103C00004D32510551F40068AA9411F480E067C068
:103C1000CE010E94682097FDF9CF102F1D7F302F15
:103C2000307301F58033F1F4FF24FA94FA0C09F4AF
:103C300042C0CE010E94682097FD3DC0382F3F7DD5
:103C4000383551F41264AA94AA94A9F1CE010E94C5
:103C5000682097FF07C02FC006FF02C0126001C096
:103C60001261AF2CC12CD12C760120ED280F283009
:103C700080F014FF04C0BE010E94A62019C02A30A3
:103C800040F016FFF8CF2F7D3FEE320F363098F719
:103C90002750412FC701B6010E94B11D6B017C0165
:103CA0001260AA9459F0CE010E94682097FFDDCFE0
:103CB00011FD04C0ABCFC12CD12C760117FF08C079
:103CC000F094E094D094C094C11CD11CE11CF11C70
:103CD000212FB701A601C4010E94A51D81E0DF913B
:103CE000CF911F910F91FF90EF90DF90CF90AF9009
:103CF0009F908F900895A1E2B0E0E1E8FEE10C947E
:103D0000C4205C017A018E010F5F1F4F680180E2C1
:103D1000D8011D928A95E9F7F501738040E050E0E3
:103D2000812CB0E0912C81E090E0F90173FCA59129
:103D300073FEA1918F017A2F9F01A11103C080E032
:103D400090E07DC0AE3519F44115510559F1E92DCA
:103D5000F0E0E417F5073CF4AD3569F1AD3219F444
:103D6000BB2319F103C0B11101C08A2EE72FE695DC
:103D7000E695E69586010E0F111DF801A72FA77095
:103D80008C0102C0000F111FAA95E2F7D801B08183
:103D9000BA2BB083781559F0781510F47F5FE6CF11
:103DA0007150E4CF9924939403C0B1E001C0B0E016
:103DB0004F5F5F4FBACFBB2319F08E8180628E8335
:103DC000911003C09924939415C0F601CE018196F9
:103DD000208120952193E817F907D1F7F3CFE1145B
:103DE000F10429F0D7018C93F70131967F016150DE
:103DF00001F1912CC50169A30E94682069A197FD7A
:103E000016C0282F269526952695F601E20FF11D5E
:103E1000208130E0AC014770552702C035952795C9
:103E20004A95E2F720FDDBCFB5010E94A620911054
:103E300086CFE114F10411F0D7011C92C801A196BC
:103E4000EDE00C94E0204F925F927F928F929F92D0
:103E5000AF92BF92CF92DF92EF92FF920F931F9398
:103E6000CF93DF931F92CDB7DEB78C012B017A0180
:103E7000FC0117821682A12CF801D380F201D3FC39
:103E80008591D3FE8191382F2F01882309F4FCC03E
:103E900090E039830E947B1D3981892B21F0C80174
:103EA0000E94D11DE9CF353241F4F201D3FC3591A6
:103EB000D3FE31912F01353269F4C80139830E9454
:103EC0006820398197FDDEC03817B1F2B8010E9431
:103ED000A620DAC03A3241F4D3FC3591D3FE3191B9
:103EE0002F01BB24B39401C0B12C712C20ED230F02
:103EF0002A3090F4FB2DF260BF2E672D70E080E039
:103F000090E040E20E94B11D762EF201D3FC359183
:103F1000D3FE31912F01EACFB1FE03C0711003C06F
:103F2000B3C077247A94383619F03C3661F014C067
:103F3000F201D3FC3591D3FE31912F01383661F473
:103F4000FB2DF860BF2E8B2D8460B82EF201D3FCC0
:103F50003591D3FE31912F01332309F495C0632F9E
:103F600070E082EC91E039830E945D203981892BD9
:103F700009F48AC0B0FC07C0F701C080D180C70136
:103F800002967C0102C0C12CD12C3E3651F4F801BE
:103F90004681578160E070E02B2DC6010E94A51D6F
:103FA0006BCF3336A1F4B1FC02C077247394C801FF
:103FB0000E94682097FD66C0C114D10429F0F60163
:103FC0008083C60101966C017A9489F757C03B350E
:103FD00059F49201A601672DC8010E947B1E2C0195
:103FE000009709F04BC045C0C80139830E94D11D1C
:103FF000398197FD47C03F3669F128F4343631F1F5
:10400000393679F12BC0333769F03537F9F026C0EE
:10401000C114D10429F0F6018082C60101966C0119
:104020007A9471F0C8010E9468204C0197FD08C085
:104030000E947B1D892B61F3B801C4010E94A62058
:10404000C114D104D9F0F601108218C0FB2DF06222
:10405000BF2E07C08B2D8061B82E03C09B2D9064AE
:10406000B92E2B2DA601672DC8010E94EA1D8111D2
:1040700005C0F8018381807329F406C0B0FCFCCE32
:10408000A394FACEAA2019F08A2D90E002C08FEFF7
:104090009FEF0F90DF91CF911F910F91FF90EF90C5
:1040A000DF90CF90BF90AF909F908F907F905F9068
:1040B0004F900895992788270895FC0105900616CA
:1040C00021F00020D9F7C00108953197CF0108955C
:1040D000CF93DF93EC012B8120FF33C026FF0AC072
:1040E0002F7B2B838E819F8101969F838E838A8174
:1040F00090E029C022FF0FC0E881F98180819927D3
:1041000087FD9095009719F420622B831AC0319691
:10411000F983E8830EC0EA85FB85099597FF09C0FE
:104120002B81019611F480E101C080E2822B8B8308
:1041300008C02E813F812F5F3F4F3F832E839927F9
:1041400002C08FEF9FEFDF91CF910895FB01238194
:1041500020FF12C026FD10C08F3F3FEF930761F094
:1041600082832F7D2064238326813781215031096A
:1041700037832683992708958FEF9FEF08952F9215
:104180003F924F925F926F927F928F929F92AF92E7
:10419000BF92CF92DF92EF92FF920F931F93CF9334
:1041A000DF93CDB7DEB7CA1BDB0B0FB6F894DEBFCB
:1041B0000FBECDBF09942A88398848885F846E84F1
:1041C0007D848C849B84AA84B984C884DF80EE803B
:1041D000FD800C811B81AA81B981CE0FD11D0FB644
:1041E000F894DEBF0FBECDBFED010895F894FFCF68
:1041F000000082052000F202F602FA02FE0202032B
:1042000006030A030E03120316031A031E03050016
:104210000400287F37E00500000B280737E0050081
:1042200000320000400014005400300025643A259C
:10423000643A256400257320256420256400436CBE
:104240006F636B2070726573656E7420616E64209D
:1042500072756E6E696E6700436C6F636B2070726F
:104260006573656E7420627574206E6F742072754C
:104270006E6E696E6700536572696F757320507258
:104280006F626C656D204453313330373A204E6F86
:1042900020636C6F636B20666F756E642100556ED2
:1042A0006B6E6F776E20636F6D6D616E64004C6F27
:1042B000636174696E672064657669636573206FF6
:1042C0006E2062757320332E2E2E00466F756E643D
:1042D000200020646576696365732E005061726109
:1042E0007369746520706F776572206F6E206275D8
:1042F0007320332069733A20004F4E004F4646002A
:104300004465766963652030204164647265737327
:104310003A20004465766963652031204164647207
:104320006573733A200044657669636520302052D6
:1043300065736F6C7574696F6E3A200044657669B9
:1043400063652031205265736F6C7574696F6E3AC6
:1043500020004D617220333120323031350032324D
:104360003A31373A34340070726F626C656D732085
:104370007769746820636C6F636B20636869700091
:104380005254432072756E6E696E6720616E6420B0
:10439000636F6E66696775726564005061727365FC
:1043A000203D2000436F6E666967203D20003A0083
:1043B00043616C6465697261200043696C696E6475
:1043C000726F2000556E6578706563746564207641
:1043D000616C7565204379636C65446576696365D6
:1043E00073004A616E00466562004D617200417063
:1043F00072004D6179004A756E004A756C00417516
:104400006700536570004F6374004E6F760044651B
:104410006300000000003F09CF165E00BC0077017A
:104420001F1C1F1E1F1E1F1F1E1F1E1F000000001F
:10443000C8129B12701278128B129A1200000000A0
:0C4440006419CF16091932191919521904
:00000001FF
